{
	"data": {
		"bytecode": {
			"linkReferences": {},
			"object": "60806040525f80553480156011575f80fd5b5061025d8061001f5f395ff3fe608060405234801561000f575f80fd5b506004361061003f575f3560e01c8063a87d942c14610043578063b7f90f1214610061578063e5071b8e1461006b575b5f80fd5b61004b610075565b6040516100589190610103565b60405180910390f35b61006961007d565b005b6100736100d6565b005b5f8054905090565b5f805410156100c1576040517f08c379a00000000000000000000000000000000000000000000000000000000081526004016100b890610176565b60405180910390fd5b60015f546100cf91906101c1565b5f81905550565b60015f546100e491906101f4565b5f81905550565b5f819050919050565b6100fd816100eb565b82525050565b5f6020820190506101165f8301846100f4565b92915050565b5f82825260208201905092915050565b7f436f756e742063616e6e6f74206265206e6567617469766500000000000000005f82015250565b5f61016060188361011c565b915061016b8261012c565b602082019050919050565b5f6020820190508181035f83015261018d81610154565b9050919050565b7f4e487b71000000000000000000000000000000000000000000000000000000005f52601160045260245ffd5b5f6101cb826100eb565b91506101d6836100eb565b92508282039050818111156101ee576101ed610194565b5b92915050565b5f6101fe826100eb565b9150610209836100eb565b925082820190508082111561022157610220610194565b5b9291505056fea26469706673582212209032df1ceb948453b22c227cc87b3b44ed967c6432af978b11b3c53c92cad70664736f6c634300081a0033",
			"opcodes": "PUSH1 0x80 PUSH1 0x40 MSTORE PUSH0 DUP1 SSTORE CALLVALUE DUP1 ISZERO PUSH1 0x11 JUMPI PUSH0 DUP1 REVERT JUMPDEST POP PUSH2 0x25D DUP1 PUSH2 0x1F PUSH0 CODECOPY PUSH0 RETURN INVALID PUSH1 0x80 PUSH1 0x40 MSTORE CALLVALUE DUP1 ISZERO PUSH2 0xF JUMPI PUSH0 DUP1 REVERT JUMPDEST POP PUSH1 0x4 CALLDATASIZE LT PUSH2 0x3F JUMPI PUSH0 CALLDATALOAD PUSH1 0xE0 SHR DUP1 PUSH4 0xA87D942C EQ PUSH2 0x43 JUMPI DUP1 PUSH4 0xB7F90F12 EQ PUSH2 0x61 JUMPI DUP1 PUSH4 0xE5071B8E EQ PUSH2 0x6B JUMPI JUMPDEST PUSH0 DUP1 REVERT JUMPDEST PUSH2 0x4B PUSH2 0x75 JUMP JUMPDEST PUSH1 0x40 MLOAD PUSH2 0x58 SWAP2 SWAP1 PUSH2 0x103 JUMP JUMPDEST PUSH1 0x40 MLOAD DUP1 SWAP2 SUB SWAP1 RETURN JUMPDEST PUSH2 0x69 PUSH2 0x7D JUMP JUMPDEST STOP JUMPDEST PUSH2 0x73 PUSH2 0xD6 JUMP JUMPDEST STOP JUMPDEST PUSH0 DUP1 SLOAD SWAP1 POP SWAP1 JUMP JUMPDEST PUSH0 DUP1 SLOAD LT ISZERO PUSH2 0xC1 JUMPI PUSH1 0x40 MLOAD PUSH32 0x8C379A000000000000000000000000000000000000000000000000000000000 DUP2 MSTORE PUSH1 0x4 ADD PUSH2 0xB8 SWAP1 PUSH2 0x176 JUMP JUMPDEST PUSH1 0x40 MLOAD DUP1 SWAP2 SUB SWAP1 REVERT JUMPDEST PUSH1 0x1 PUSH0 SLOAD PUSH2 0xCF SWAP2 SWAP1 PUSH2 0x1C1 JUMP JUMPDEST PUSH0 DUP2 SWAP1 SSTORE POP JUMP JUMPDEST PUSH1 0x1 PUSH0 SLOAD PUSH2 0xE4 SWAP2 SWAP1 PUSH2 0x1F4 JUMP JUMPDEST PUSH0 DUP2 SWAP1 SSTORE POP JUMP JUMPDEST PUSH0 DUP2 SWAP1 POP SWAP2 SWAP1 POP JUMP JUMPDEST PUSH2 0xFD DUP2 PUSH2 0xEB JUMP JUMPDEST DUP3 MSTORE POP POP JUMP JUMPDEST PUSH0 PUSH1 0x20 DUP3 ADD SWAP1 POP PUSH2 0x116 PUSH0 DUP4 ADD DUP5 PUSH2 0xF4 JUMP JUMPDEST SWAP3 SWAP2 POP POP JUMP JUMPDEST PUSH0 DUP3 DUP3 MSTORE PUSH1 0x20 DUP3 ADD SWAP1 POP SWAP3 SWAP2 POP POP JUMP JUMPDEST PUSH32 0x436F756E742063616E6E6F74206265206E656761746976650000000000000000 PUSH0 DUP3 ADD MSTORE POP JUMP JUMPDEST PUSH0 PUSH2 0x160 PUSH1 0x18 DUP4 PUSH2 0x11C JUMP JUMPDEST SWAP2 POP PUSH2 0x16B DUP3 PUSH2 0x12C JUMP JUMPDEST PUSH1 0x20 DUP3 ADD SWAP1 POP SWAP2 SWAP1 POP JUMP JUMPDEST PUSH0 PUSH1 0x20 DUP3 ADD SWAP1 POP DUP2 DUP2 SUB PUSH0 DUP4 ADD MSTORE PUSH2 0x18D DUP2 PUSH2 0x154 JUMP JUMPDEST SWAP1 POP SWAP2 SWAP1 POP JUMP JUMPDEST PUSH32 0x4E487B7100000000000000000000000000000000000000000000000000000000 PUSH0 MSTORE PUSH1 0x11 PUSH1 0x4 MSTORE PUSH1 0x24 PUSH0 REVERT JUMPDEST PUSH0 PUSH2 0x1CB DUP3 PUSH2 0xEB JUMP JUMPDEST SWAP2 POP PUSH2 0x1D6 DUP4 PUSH2 0xEB JUMP JUMPDEST SWAP3 POP DUP3 DUP3 SUB SWAP1 POP DUP2 DUP2 GT ISZERO PUSH2 0x1EE JUMPI PUSH2 0x1ED PUSH2 0x194 JUMP JUMPDEST JUMPDEST SWAP3 SWAP2 POP POP JUMP JUMPDEST PUSH0 PUSH2 0x1FE DUP3 PUSH2 0xEB JUMP JUMPDEST SWAP2 POP PUSH2 0x209 DUP4 PUSH2 0xEB JUMP JUMPDEST SWAP3 POP DUP3 DUP3 ADD SWAP1 POP DUP1 DUP3 GT ISZERO PUSH2 0x221 JUMPI PUSH2 0x220 PUSH2 0x194 JUMP JUMPDEST JUMPDEST SWAP3 SWAP2 POP POP JUMP INVALID LOG2 PUSH5 0x6970667358 0x22 SLT KECCAK256 SWAP1 ORIGIN 0xDF SHR 0xEB SWAP5 DUP5 MSTORE8 0xB2 0x2C 0x22 PUSH29 0xC87B3B44ED967C6432AF978B11B3C53C92CAD70664736F6C634300081A STOP CALLER "
		},
		"gasEstimates": {
			"creation": {
				"codeDepositCost": "121000",
				"executionCost": "5168",
				"totalCost": "126168"
			},
			"external": {
				"decrementCount()": "infinite",
				"getCount()": "2410",
				"incrementCount()": "infinite"
			}
		},
		"methodIdentifiers": {
			"decrementCount()": "b7f90f12",
			"getCount()": "a87d942c",
			"incrementCount()": "e5071b8e"
		}
	},
	"abi": [
		{
			"inputs": [],
			"name": "decrementCount",
			"outputs": [],
			"stateMutability": "nonpayable",
			"type": "function"
		},
		{
			"inputs": [],
			"name": "getCount",
			"outputs": [
				{
					"internalType": "uint256",
					"name": "",
					"type": "uint256"
				}
			],
			"stateMutability": "view",
			"type": "function"
		},
		{
			"inputs": [],
			"name": "incrementCount",
			"outputs": [],
			"stateMutability": "nonpayable",
			"type": "function"
		}
	]
}